:020000040800F2
:1000000060070020D5010008870C00087106000871
:10001000830C00085505000853100008000000007C
:10002000000000000000000000000000050E0008B5
:1000300059050008000000000D0D00082F0E0008F3
:10004000EB010008EB010008EB010008EB010008E0
:10005000EB010008EB010008EB010008EB010008D0
:10006000EB010008EB010008EB010008EB010008C0
:10007000EB010008EB010008EB010008EB010008B0
:10008000EB010008EB010008EB010008EB010008A0
:10009000EB010008EB010008EB010008EB01000890
:1000A000EB010008EB010008EB010008EB01000880
:1000B000EB010008EB010008EB010008EB01000870
:1000C000EB010008EB010008EB010008EB01000860
:1000D000EB010008310E0008EB010008EB010008FD
:1000E000EB010008EB010008EB010008EB01000840
:1000F000EB010008EB010008EB010008EB01000830
:10010000EB010008EB010008EB010008EB0100081F
:10011000EB010008EB010008EB010008EB0100080F
:10012000EB010008EB010008EB010008EB010008FF
:1001300000F002F800F03FF80AA090E8000C8244BA
:100140008344AAF10107DA4501D100F034F8AFF297
:10015000090EBAE80F0013F0010F18BFFB1A43F0A5
:1001600001031847381A0000581A0000103A24BF3B
:1001700078C878C1FAD8520724BF30C830C144BF0C
:1001800004680C607047000000230024002500264E
:10019000103A28BF78C1FBD8520728BF30C148BFEA
:1001A0000B607047642900F03F80002070471FB546
:1001B0001FBD10B510BD00F09FF91146FFF7F7FF06
:1001C00000F0CEFF00F0BDF903B4FFF7F2FF03BC6F
:1001D00000F048FF08480047FEE7FEE7FEE7FEE7BD
:1001E000FEE7FEE7FEE7FEE7FEE7FEE70348044919
:1001F000044A054B704700003101000860010020EF
:1002000060070020600300206003002070470000AA
:100210000FB4044910B503AA029800F03BF910BCD2
:100220005DF814FB180000202DE9F041064600247B
:1002300010687529314616A510D0AFF3008000284C
:1002400002DA404213A507E031688A0701D512A5FA
:1002500002E0490704D511A5012401E0AFF30080B5
:1002600000210A2206F1240709E0B0FBF2FCB0FBF2
:10027000F2F302FB1C00303078541846491C002869
:10028000F3D123462A463046BDE8F04100F0A8B835
:10029000000000002D0000002B00000020000000E6
:1002A0002DE9F05F894604464FF0000ADFF824B1DB
:1002B000FB44C0F820A02046E168884700287DD094
:1002C000252806D0D4E901219047206A401C2062ED
:1002D000F1E700255F462046E1688847202806466A
:1002E00007DB312E05D2B81910F8200C08B10543F0
:1002F000F1E7A80701D525F00405C4F81CA00027E4
:10030000C4F818A02A2E09D0304600F0A4FE38B355
:1003100004EB8708303EC8F8186019E059F8041B50
:10032000204604EB87029161E1688847012F064669
:1003300018D1E069002820DA25F020051DE0D8F862
:10034000180000EB800006EB40003038C8F81800B9
:100350002046E1688847064600F07DFE0028EED181
:10036000012F0AD02E2E08D12046E16888477F1C35
:100370000646022F45F02005C4DBA069002803DAF9
:10038000404245F00105A061E80701D025F01005C5
:10039000A6B1A6F14100192802D8203645F400651F
:1003A0004A463146204625604D46FFF7FBFE60B1C8
:1003B000012807D0ED1D25F0070000E007E000F15F
:1003C000080978E705F1040975E730467AE7206AFD
:1003D000BDE8F09FD4180000704770477047704721
:1003E0002DE9F0470D4699469246044600F124084F
:1003F0000168880604D5E06921F01001216000E061
:100400000120A84201DD471B00E00027A1697A19FD
:1004100002EB0900081AA0612078C00602D4204629
:10042000AFF30080002608E0D4E901211AF80600A5
:100430009047206A401C761C20624E45F4DB2078F1
:10044000C0060AD52046AFF3008006E0D4E90121BA
:1004500030209047206A401C2062381EA7F1010717
:10046000F4DC07E0D4E9012118F805009047206A80
:10047000401C2062281EA5F10105F3DC2046AFF3E5
:1004800000802078000602D50220BDE8F087012018
:10049000FBE70000074B70B50D467B4400F011F8F8
:1004A0000446284600F020F810B14FF0FF3070BD30
:1004B000204670BDA70C000001694A1C0261087843
:1004C000704700B58FB0CDE9013100210591054994
:1004D0007944CDE9031011466846FFF7E1FE0FB0FD
:1004E00000BD0000E5FFFFFF007B00F080007047CB
:1004F00000487047FC0000207546FFF7F9FFAE4644
:1005000005006946534620F00700854618B020B51F
:10051000FFF76CFEBDE820404FF000064FF00007EB
:100520004FF000084FF0000B21F00701AC46ACE89B
:10053000C009ACE8C009ACE8C009ACE8C0098D4608
:10054000704710B50446AFF300802046BDE8104068
:10055000FFF73ABE00BFFEE770472DE9F0410246C3
:1005600000250026002000230024002791F803C066
:100570000CF00F0591F803C00CF0100CBCF1000F4B
:1005800003D091F802C04CEA050591F800C0BCF117
:10059000000F31D0146800202BE04FF0010C0CFA52
:1005A00000F3B1F800C00CEA03069E4220D183009C
:1005B0004FF00F0C0CFA03F7BC4305FA03FC4CEAAE
:1005C000040491F803C0BCF1280F06D14FF0010CD0
:1005D0000CFA00FCC2F814C00AE091F803C0BCF1A8
:1005E000480F05D14FF0010C0CFA00FCC2F810C006
:1005F000401C0828D1D31460B1F800C0BCF1FF0F33
:1006000034DD546800202EE000F1080C4FF00108A2
:1006100008FA0CF3B1F800C00CEA03069E4221D19F
:1006200083004FF00F0C0CFA03F7BC4305FA03FCF0
:100630004CEA040491F803C0BCF1280F05D100F185
:10064000080C08FA0CF8C2F8148091F803C0BCF149
:10065000480F07D100F1080C4FF0010808FA0CF818
:10066000C2F81080401C0828CED35460BDE8F08149
:1006700000BFFEE701464906084A926942F00102BE
:10068000064B9A61064A526822F0E062044B5A60B7
:100690001A4652680A435A60704700000010024030
:1006A000000001402DE9FC4104460D4616466B460C
:1006B00006223B21682000F03EFA0746BFB99DF8AC
:1006C00001009DF8001040EA012000B220809DF852
:1006D00003009DF8021040EA012000B228809DF836
:1006E00005009DF8041040EA012000B23080384631
:1006F000BDE8FC812DE9FC4104460D4616466B46DB
:1007000006224321682000F016FA0746BFB99DF87B
:1007100001009DF8001040EA012000B220809DF801
:1007200003009DF8021040EA012000B228809DF8E5
:1007300005009DF8041040EA012000B230803846E0
:10074000BDE8FC812DE9F84F6B460222412168206B
:1007500000F0F1F99DF801009DF8001040EA012039
:100760000FFA80FA504600F0D1FF804600220B4B72
:1007700000F074FE06460A4A0A4B00F0C7FD044624
:1007800000F092FD83460849584601F031F90446CD
:1007900001F012F900B2BDE8F88F0000004075408A
:1007A000A4703D0AD74342400000C84210B5002063
:1007B0000E4908600E48006820F470400C4908603B
:1007C0000846006840F44050086000200949C1F81C
:1007D000AC0100F011F801200449086000F00CF8A9
:1007E00000200449C1F8A80110BD0000A8812142E1
:1007F000040C01400080214210B5022000F07CFC76
:1008000010BD00000C48806940F008000A4988616A
:100810000A48006820F47F400849086008460068DC
:1008200040F44C50086005480830006840F44060CF
:10083000024908310860704700100240040C014072
:1008400010B500200E4908600E48006820F4704082
:100850000C4908600846006840F4405008600120D8
:100860000949C1F8AC01FFF7C7FF0120044908603E
:10087000FFF7C2FF00200449C1F8A80110BD000025
:10088000A8812142040C01400080214270B5054638
:1008900000241648006820F4704014490860084697
:1008A000006840F400400860002614E00020104971
:1008B0000860FFF7A1FF01200E49C1F8A8016006FA
:1008C000040E0B487C38006808B1601CC4B2FFF706
:1008D00093FF701CC6B2082EE8DB15B9FFF7B0FF16
:1008E00001E0FFF763FF204670BD0000040C0140EB
:1008F000A88121420080214270B504461248006858
:1009000020F47040104908600846006840F44050E8
:10091000086000200D490860002512E0E0090B493D
:10092000091D08606006040E01200949C1F8A801EC
:10093000FFF762FF002005490860FFF75DFF681CB4
:10094000C5B2082DEADB70BD040C0140A88121422C
:100950000080214210B50E48006820F470400C4918
:1009600008600846006840F44050086001200949CA
:1009700008600949C1F8A801FFF73EFF00200549BA
:100980000860FFF739FF00200349C1F8A80110BD36
:10099000040C0140AC8121420080214210B50E4878
:1009A000006820F470400C4908600846006840F474
:1009B000405008600020094908600949C1F8AC01AD
:1009C000FFF71AFF0120054908600549C1F8AC018D
:1009D000FFF712FF10BD0000040C0140A881214266
:1009E0000080214210B500241448006820F47040B3
:1009F000124908600846006840F400400860012081
:100A00000F490860FFF7F8FE01200E49C1F8A80160
:100A1000FFF7F2FE07E0601CC4B2FA2C03DDFFF71B
:100A2000BDFF012010BD0648803800680028F2D1C3
:100A30000349091F086000BFF4E70000040C0140EF
:100A4000AC8121420080214210B52948806940F0E4
:100A50000400274988612748006820F07040254934
:100A600008600846006840F0405008600120FFF729
:100A700001FE002020490860FFF7C4FE80216B20A2
:100A800000F0DDF8642000F011FB00216B2000F085
:100A9000D6F8032000F091F8002000F086F832200C
:100AA00000F0B0F80021382000F0C9F800216A20D9
:100AB00000F0C5F80021232000F0C1F88021372084
:100AC00000F0BDF8752000F019F80446682C0BD131
:100AD00001216B2000F0B3F800216C2000F0AFF88A
:100AE000322000F08FF801E0012010BD0020FCE76B
:100AF0000010024004080140BC01214270B50446C8
:100B0000FFF728FFD020FFF7F7FEFFF76BFF204627
:100B1000FFF7F2FEFFF766FFFFF71CFFD120FFF79C
:100B2000EBFEFFF75FFF0020FFF7B0FE0546FFF783
:100B300035FF284670BD2DE9F04106460F461446A4
:100B40001D46FFF707FF002141EA4601C8B2FFF743
:100B5000D3FEFFF747FF20B1FFF720FF0120BDE8DC
:100B6000F0813846FFF7C8FEFFF73CFFFFF7F2FEC3
:100B7000012101EB4601C8B2FFF7BEFEFFF732FFCD
:100B80000DE0012C04D10020FFF780FE287003E067
:100B90000120FFF77BFE2870601EC4B26D1C002C84
:100BA000EFD1FFF7FBFE0020D9E710B50446E006C1
:100BB000010E1C2000F043F810BD10B50446E006FD
:100BC000010E1B2000F03BF810BD70B50446002557
:100BD000BC2C01DB012510E0622C01DB02250CE0BE
:100BE0002A2C01DB032508E0142C01DB042504E09A
:100BF0000A2C01DB052500E0062529461A2000F015
:100C00001EF870BD70B50446B4F57A7F01DD4FF46F
:100C10007A74042C00DA04244FF47A7090FBF4F018
:100C2000401EC5B22946192000F009F8054626469F
:100C300004EBD671C1F34F00FFF7C7FF70BD70B56D
:100C400005460C46FFF786FED020FFF755FEFFF75E
:100C5000C9FE18B1FFF7A2FE012070BD2846FFF7BC
:100C60004BFEFFF7BFFE2046FFF746FEFFF7BAFE3A
:100C700018B1FFF793FE0120EFE7FFF78FFE00208A
:100C8000EBE700BFFEE7704770B5002100230F229D
:100C9000C47804B3154C246804F4E064C4F5E0643B
:100CA000210AC1F10403CA40447804FA03F18478AC
:100CB0001440214309010E4C0678A155047804F034
:100CC0001F050124AC4005786D11AD0005F1E0254C
:100CD000C5F8004109E0047804F01F050124AC4088
:100CE000044D0678761145F8264070BD0CED00E005
:100CF00000E400E080E100E002490143024A1160A3
:100D0000704700000000FA050CED00E0704700009D
:100D100029B1064A92690243044B9A6104E0034AEE
:100D200092698243014B9A617047000000100240B3
:100D300030B500210022002400232D4D6D6805F000
:100D40000C0121B1042905D0082923D105E0294D42
:100D5000056022E0274D05601FE0254D6D6805F414
:100D60007012234D6D6805F48034022505EB924224
:100D70001CB9214D554305600BE01D4D6D6805F410
:100D800000351DB11C4D5543056002E0194D55431A
:100D9000056002E0174D056000BF00BF144D6D688F
:100DA00005F0F0010909154D6B5C0568DD404560F3
:100DB0000F4D6D6805F4E061090A104D6B5C4568E4
:100DC000DD4085600A4D6D6805F46051C90A0B4D20
:100DD0006B5C4568DD40C560054D6D6805F44041BC
:100DE000890B074D6B5CC568B5FBF3F5056130BD3C
:100DF0000010024000127A0000093D001E00002091
:100E00002E0000207047042808D14FF0E021096926
:100E100041F004014FF0E022116107E04FF0E021C2
:100E2000096921F004014FF0E02211617047704719
:100E300010B540F225511D4800F04AF810B31B4888
:100E400000F002F9C4B21A48008800F40040C8B9A2
:100E50001748008800F4804060B10A2C03D00020BD
:100E60001349088020E01248008840F400401049EF
:100E7000088019E00D2C06D10D48008840F4804010
:100E80000B49088010E00A480088C0F30D000949AA
:100E90000C5407480088401C054908800846008813
:100EA000C72801DD0020088010BD00000038014087
:100EB0001C0000203400002021B1828942F400523D
:100EC000828104E082894DF6FF731A408281704767
:100ED00070B50246002400230025002040F66A1663
:100EE000B14200D100BFC1F3421501F01F0301263A
:100EF00006FA03F3012D02D19689334006E0022D54
:100F000002D1168A334001E0968A33400C12012642
:100F100006FA04F41688344013B10CB1012000E045
:100F2000002070BDF0B503460024002600250020F7
:100F300040F66A17B94200D100BF1846C1F3421407
:100F400001F01F06012707FA06F5012C01D10C302C
:100F500004E0022C01D1103000E014301AB107680F
:100F60002F43076002E00768AF430760F0BD000051
:100F70002DE9F04786B005460E460024A24600BF84
:100F8000A1460027B08900B100BF2F462C8A4CF63D
:100F9000FF700440F08804432C82AC894EF6F310B5
:100FA0000440B08831890843718908430443AC8107
:100FB000AC8A4FF6FF400440B0890443AC8201A8DC
:100FC000FFF7B6FE1F48874202D1DDF810A001E00E
:100FD000DDF80CA0A88900F4004040B10AEBCA007B
:100FE00000EB0A1031684900B0FBF1F807E00AEBAA
:100FF000CA0000EB0A1031688900B0FBF1F86420E8
:10100000B8FBF0F004012009642101FB1089A889D4
:1010100000F4004040B1322000EBC900B0FBF1F019
:1010200000F00700044308E0322000EB09106421BF
:10103000B0FBF1F000F00F0004432C8106B0BDE8D6
:10104000F08700000038014001468888C0F308009E
:10105000704700BFFEE730380A2801D201207047F0
:101060000020704700BF704710B56FF00400FFF715
:10107000CAFE0A4800680A49B0FBF1F00949087045
:101080000846007800EB4001C1EBC0104FF6FF713D
:1010900001EAC0000449088010BD000000000020E3
:1010A00000127A0014000020160000200146114AA8
:1010B00012884A434FF0E0235A6100229A611A468F
:1010C000126942F001021A6100BF4FF0E02210697C
:1010D00000F001021AB100F48032002AF5D04FF07E
:1010E000E022126922F001024FF0E0231A6100228F
:1010F0009A617047160000200146114A12784A434F
:101100004FF0E0235A6100229A611A46126942F0B8
:1011100001021A6100BF4FF0E022106900F00102E5
:101120001AB100F48032002AF5D04FF0E0221269A3
:1011300022F001024FF0E0231A6100229A61704709
:101140001400002000BF054A128802F04002002A65
:10115000F9D0C2B2014B1B1D1A8070470038014004
:101160008AB0FFF781FF4FF4E13000F049F8FFF754
:101170006BFC23E0FFF7E6FA044607AA08A909A8D2
:10118000FFF790FA04AA05A906A8FFF7B3FABDF97C
:101190001C00BDF92010BDF92420BDF91030CDE9A7
:1011A0000032CDE90210BDF91430BDF918202146F6
:1011B00003A0FFF72DF83220FFF778FFDAE70000F1
:1011C0002A74656D703D25643B6779726F783D25A3
:1011D000643B6779726F793D25643B6779726F7AFA
:1011E0003D25643B616163783D25643B61616379C2
:1011F0003D25643B6161637A3D25643B2A00000024
:1012000010B586B004464FF4A060FFF775FD0121CC
:1012100044F20400FFF77CFD4FF40070ADF81400B9
:1012200003208DF8160018208DF8170005A91C481A
:10123000FFF793F94FF48060ADF8140004208DF8A7
:10124000170005A91648FFF788F925208DF800003A
:1012500003208DF801008DF8020001208DF80300B5
:101260006846FFF711FD01940020ADF80800ADF8C5
:101270000A00ADF80C00ADF810000C20ADF80E001F
:1012800001A90848FFF774FE012240F225510548E4
:10129000FFF748FE01210348FFF70EFE06B010BD20
:1012A000000801400038014021F00042A2F16052E4
:1012B000B2F5801F01F0004328BFD2F17F6C0BD93B
:1012C0005FEA001C43EAC20242EB507018BF70474D
:1012D00028BF20F001007047B2F5801FBCBF184640
:1012E00070474FEA410C1CF5001F02D2084600F07F
:1012F00046BC70B500F021FA00000089FFF7F6BF88
:101300004FF00040A0F580007047000010B591EA52
:10131000030F48BF83F0004300F16C82841A71EB25
:10132000030C05D2121943EB0C03001B61EB0C01FB
:10133000DFF824E14FEA1154A4EB135C1EEA430FDB
:1013400018BF9EEA445F73D023EA0E03DCF1200E3F
:1013500021EA045143F4801332D322FA0CFE10EB3D
:101360000E0023FA0CFE41EB0E01CCF1200E03FA25
:101370000EFE10EB0E0051F10001B1F5801FCCF113
:10138000200E32D201EB045112FA0EF2BDE81040E9
:1013900058BF7047401C38BF5FEA420218BF704711
:1013A000002814BF20F0010041F100014FEA410381
:1013B00013F5001F38BF7047A1F1C04100F00BBA10
:1013C000012A43EB0302ACF1200CDCF11F0E32BF0B
:1013D0004FF0000E23FA0CF310EB030041EB045125
:1013E000B4EB115FD0D0A1EB045101F58011490895
:1013F0005FEA300001EB04510ED350F1000038BF1A
:1014000012FA0EFE08D1BDE81040C9E7401C38BFF3
:101410005FEA4202CAD1C3E7BDE810404FEA410388
:1014200013F5001F38BF7047A1F1C04100F0D3B9D8
:101430009EEA445F08D011EA5E0FBDE8104004BF89
:1014400001F0004100207047BDE8104070B500F089
:1014500074F900BF64FBBE3E0000E0FF2DE9C0410F
:1014600030B4DFF8A0C23CEA111418BF3CEA1314F0
:1014700000F0EC8081EA03051CEA111444EAD574FB
:1014800018BF1CEA131500F0C780A4EB05044FF049
:10149000004545EAC12145EAC32341EA505143EAE8
:1014A000525304F17F74994204F500344FEAC0208E
:1014B0004FEAC22208BF904200F09C804FEA1365B9
:1014C0000FF24016765D4FEA134506FB05F7C7F1AC
:1014D000807706FB07F74FEAD737A7FB036876420A
:1014E000C8F58038A7FB06CE38BFA8F1010807FB76
:1014F00008E64FF0000EA6FB028CE6FB03CEDCF103
:10150000000CCEF1004E38BFAEF1010EA6FB0C5818
:101510004FF000074FF00005E6FB0E87A1FB08C661
:10152000A0FB07CE16EB0E0645F10005E1FB0765B3
:1015300015F1E04E7EBFA4F580345FEA46066D41AA
:1015400016F1800745F100054FEA17274FEA0666B6
:1015500047EA0567A6F1DE46B6F1805F4FEA15253A
:101560001FD9384624F0010C05EBC471BCF1FE6FA5
:1015700001EB0C1102D8F0BCBDE8008124425CBF35
:1015800001F5801E9EEAC47F02D4F0BCBDE8008154
:10159000244238D4F0BCA1F1C041BDE8004100F0C4
:1015A0001AB94FEAD22242EA43524FEAD323A7FBA9
:1015B00002864FEAD02040EA415007FB03661EEA4C
:1015C0000E0F4FEAD12105FB026658BFA6EB00566D
:1015D000B6EB00564FEA520E4EEAC37E18EB0E0EE3
:1015E00056EB530EBDD518EB02085E417F1C55F13A
:1015F0000005B6E74FF480154FF000074FF00006E6
:101600004FF00008ADE7F0BC4FF0000001F1C04121
:1016100001F00041BDE8008111EA0C1F0CEA13152E
:1016200000D00CE013EA0C1F00F025804FF0000002
:10163000F0BC81EA030101F00041BDE80081F0BC8B
:10164000BDE8004181EA030100F0C5B8F0BCBDE887
:10165000004170B500F071F8097EFC3E00F007B85B
:1016600081EA03014FF0000001F00041704781EA78
:10167000030100F0B0B8F0BCBDE800414FF000003D
:1016800021497047FFFDFBF9F7F5F4F2F0EEEDEBC1
:10169000E9E8E6E4E3E1E0DEDDDBDAD8D7D5D4D370
:1016A000D1D0CFCDCCCBCAC8C7C6C5C4C2C1C0BFBC
:1016B000BEBDBCBBBAB9B8B7B6B5B4B3B2B1B0AFC2
:1016C000AEADACABAAA9A8A8A7A6A5A4A3A3A2A1A6
:1016D000A09F9F9E9D9C9C9B9A9999989797969561
:1016E00095949393929191908F8F8E8E8D8C8C8BFD
:1016F0008B8A898988888787868585848483838285
:10170000828181800000FF070000F87F10F0004216
:1017100048BF4042B0FA80F310FA03F10AD0C3F197
:101720001D0303F580634FEA415002EB035202EBC5
:10173000D12170474FF0000070470EF1020E2EF0DD
:10174000030E5EF8046B364205D4012A43EB030511
:1017500015F5001F12D8012841EB010C1CF5001FE4
:101760000CD80ED14FEAD17C15F5001F0CEB4C0CB8
:101770000CF1020C08BF4CEBD37C04E04FF0080CDA
:1017800001E04FEAD37C0CEB4C0526FA05F606F097
:101790000706B6F1040C06D20EEB860CBDE87040CD
:1017A0004CF0010C6047DFE80CF0090B02024FF02F
:1017B00000414FF00000A1F5002170BD1946104610
:1017C000012851EB010418BFD4F5001484BF002098
:1017D00001F0004170BD0808A0F500114FEA310189
:1017E0007047000010B591EA030F48BF83F0004333
:1017F0003FF594AD841A71EB030C07D212198CF0EB
:10180000004C43EB0C03001B61EB0C01DFF8A4E17F
:101810004FEA1154A4EB135C1EEA430F18BF9EEA73
:10182000445F00F0B08023EA6E03524221EA045183
:10183000C3EB6E0338BF5B1EDCF1200E25D322FA0A
:101840000CFE10EB0E0043FA0CFE41EB0E01CCF146
:10185000200E03FA0EFE10EB0E0051F10001CCF148
:10186000200E29D412FA0EF201EB0451BDE810400B
:1018700058BF7047401C1CBFB2F1004F7047002892
:101880000CBF491C20F00100704712EB020E43EB25
:10189000030218BF4FF0010E4EEA4202ACF1200CD9
:1018A000DCF11E0E54D943FA0CFE10EB0E0051F180
:1018B000FF31CCF11E0ED5D50EF1010E12FA0EFE3F
:1018C000404141EB010101EB445C5FEA5C5C10D9F3
:1018D00010EBDE7001EB045138BFBEF1004FBDE8E4
:1018E000104018BF704700280CBF491C20F00100B1
:1018F000704730D24FEAD42C11F5001124F4006463
:101900001BD0B1FA81F20B3AA41AA41ED2F1200323
:10191000914030FA03F31943904001EBCC71002C55
:1019200001EB0451BDE81040A8BF704701F1C04170
:101930004FF0000001F000417047B0FA80F310FA58
:1019400003F100D110BDE41A173C4805C90AE4E7C9
:1019500001EB045110BD491001EB0451BDE81040EA
:101960004FEA300002E04FF0000170474A0008BF24
:101970000042F8D0B2F5001F28BF704701F00041C7
:101980004FF0000070479EEA445F07D011EA5E0FF7
:10199000BDE8104004BF002100207047BDE81040A2
:1019A00070B5FFF7CAFE00BF40DFF63E83F000418E
:1019B000104670470000E0FF41000B0ED3F19E027D
:1019C00008D950F400034FEA032323FA02F048BF7A
:1019D0004042704710B500F08CF800BF4992248057
:1019E000002070476FF0004282EA2000704700003C
:1019F0004FF47F0C1CEAD0121EBF1CEAD11392EAEE
:101A00000C0F93EA0C0F00F0478090EA010F48BFDB
:101A100042F480724FF0004C4CEA00204CEA012165
:101A200002EB0302A0FB0113A2F50002002918BF7C
:101A300043F001035B0028BF4FEA330342EB22422D
:101A40005FEA132C4CEBC2502EBFBCEB436FB2F5D8
:101A50007C0F70474FEA036CBCF1004F08BF20F0C9
:101A60000100B2F57C0F38BF70470BD582F0FF0242
:101A700012F5803FC8BF704700F1C040D8BF00F0EA
:101A80000040704700F5000C5FEA4C0C48BF7047FF
:101A9000B0F1C04000F073B890EA010F0CEAD11326
:101AA00048BF42F48072624538BF634504D280EA81
:101AB000010000F00040704710B500F01AF800BFB8
:101AC0008900013E00F007B800F009B85FEA410C58
:101AD0005FEA1C6C08D080EA010000F050B85FEAB1
:101AE000400C5FEA1C6CF6D14FF00040A0F580007E
:101AF00070470EF1020E2EF0030E5EF8044B2442E6
:101B000004D44FEA4102B2F17F4F11D84FEA4003AB
:101B1000B3F17F4F0CD80ED14FEAD07CB2F17F4F9A
:101B20000CEB4C0C0CF1020C08BF4CEBD17C04E02C
:101B30004FF0080C01E04FEAD17C0CEB4C0324FA87
:101B400003F404F00704B4F1040C06D20EEB840C89
:101B5000BDE810404CF0010C6047DFE80CF00708CE
:101B600002024FF00040A0F5800010BD0846420080
:101B700018BFD2F1807288BF00F0004010BDFF2175
:101B800041EAD050C0057047040000080000000082
:101B9000000000020001000010000000BC1B000853
:101BA00000000020340000006C010008F01B000859
:101BB000340000202C0700008801000800A24A041D
:101BC00000000000000000000102030406070809ED
:101BD0000000000000000000000000000000010202
:101BE00003040102030406070809020406080000B2
:0400000508000131BD
:00000001FF
